{
  "contractName": "Voting",
  "abi": [
    {
      "anonymous": false,
      "inputs": [
        {
          "indexed": false,
          "internalType": "uint256",
          "name": "voteIndex",
          "type": "uint256"
        },
        {
          "indexed": false,
          "internalType": "uint256",
          "name": "proposalId",
          "type": "uint256"
        }
      ],
      "name": "ProposalRegistered",
      "type": "event"
    },
    {
      "anonymous": false,
      "inputs": [
        {
          "indexed": false,
          "internalType": "uint256",
          "name": "voteIndex",
          "type": "uint256"
        }
      ],
      "name": "ProposalsRegistrationEnded",
      "type": "event"
    },
    {
      "anonymous": false,
      "inputs": [
        {
          "indexed": false,
          "internalType": "uint256",
          "name": "voteIndex",
          "type": "uint256"
        }
      ],
      "name": "ProposalsRegistrationStarted",
      "type": "event"
    },
    {
      "anonymous": false,
      "inputs": [
        {
          "indexed": false,
          "internalType": "uint256",
          "name": "voteIndex",
          "type": "uint256"
        }
      ],
      "name": "VoteCreated",
      "type": "event"
    },
    {
      "anonymous": false,
      "inputs": [
        {
          "indexed": false,
          "internalType": "uint256",
          "name": "voteIndex",
          "type": "uint256"
        },
        {
          "indexed": false,
          "internalType": "address",
          "name": "voter",
          "type": "address"
        },
        {
          "indexed": false,
          "internalType": "uint256",
          "name": "proposalId",
          "type": "uint256"
        }
      ],
      "name": "Voted",
      "type": "event"
    },
    {
      "anonymous": false,
      "inputs": [
        {
          "indexed": false,
          "internalType": "uint256",
          "name": "voteIndex",
          "type": "uint256"
        },
        {
          "indexed": false,
          "internalType": "address",
          "name": "voterAddress",
          "type": "address"
        }
      ],
      "name": "VoterRegistered",
      "type": "event"
    },
    {
      "anonymous": false,
      "inputs": [
        {
          "indexed": false,
          "internalType": "uint256",
          "name": "voteIndex",
          "type": "uint256"
        }
      ],
      "name": "VotesTallied",
      "type": "event"
    },
    {
      "anonymous": false,
      "inputs": [
        {
          "indexed": false,
          "internalType": "uint256",
          "name": "voteIndex",
          "type": "uint256"
        }
      ],
      "name": "VotingSessionEnded",
      "type": "event"
    },
    {
      "anonymous": false,
      "inputs": [
        {
          "indexed": false,
          "internalType": "uint256",
          "name": "voteIndex",
          "type": "uint256"
        }
      ],
      "name": "VotingSessionStarted",
      "type": "event"
    },
    {
      "anonymous": false,
      "inputs": [
        {
          "indexed": false,
          "internalType": "uint256",
          "name": "voteIndex",
          "type": "uint256"
        },
        {
          "indexed": false,
          "internalType": "enum Voting.WorkflowStatus",
          "name": "previousStatus",
          "type": "uint8"
        },
        {
          "indexed": false,
          "internalType": "enum Voting.WorkflowStatus",
          "name": "newStatus",
          "type": "uint8"
        }
      ],
      "name": "WorkflowStatusChange",
      "type": "event"
    },
    {
      "anonymous": false,
      "inputs": [
        {
          "indexed": false,
          "internalType": "address",
          "name": "out",
          "type": "address"
        }
      ],
      "name": "log",
      "type": "event"
    },
    {
      "inputs": [
        {
          "internalType": "uint256",
          "name": "index",
          "type": "uint256"
        }
      ],
      "name": "isRegistered",
      "outputs": [
        {
          "internalType": "bool",
          "name": "",
          "type": "bool"
        }
      ],
      "stateMutability": "view",
      "type": "function",
      "constant": true
    },
    {
      "inputs": [
        {
          "internalType": "uint256",
          "name": "index",
          "type": "uint256"
        }
      ],
      "name": "isOwner",
      "outputs": [
        {
          "internalType": "bool",
          "name": "",
          "type": "bool"
        }
      ],
      "stateMutability": "view",
      "type": "function",
      "constant": true
    },
    {
      "inputs": [
        {
          "internalType": "string",
          "name": "tips",
          "type": "string"
        }
      ],
      "name": "newVote",
      "outputs": [],
      "stateMutability": "nonpayable",
      "type": "function"
    },
    {
      "inputs": [
        {
          "internalType": "uint256",
          "name": "index",
          "type": "uint256"
        }
      ],
      "name": "setNextWorkflowStatus",
      "outputs": [],
      "stateMutability": "nonpayable",
      "type": "function"
    },
    {
      "inputs": [
        {
          "internalType": "uint256",
          "name": "index",
          "type": "uint256"
        }
      ],
      "name": "getWorkflowStatus",
      "outputs": [
        {
          "internalType": "enum Voting.WorkflowStatus",
          "name": "",
          "type": "uint8"
        }
      ],
      "stateMutability": "view",
      "type": "function",
      "constant": true
    },
    {
      "inputs": [
        {
          "internalType": "uint256",
          "name": "index",
          "type": "uint256"
        },
        {
          "internalType": "address",
          "name": "_address",
          "type": "address"
        }
      ],
      "name": "authorize",
      "outputs": [],
      "stateMutability": "nonpayable",
      "type": "function"
    },
    {
      "inputs": [
        {
          "internalType": "uint256",
          "name": "index",
          "type": "uint256"
        },
        {
          "internalType": "address",
          "name": "_address",
          "type": "address"
        }
      ],
      "name": "autorized",
      "outputs": [
        {
          "internalType": "bool",
          "name": "",
          "type": "bool"
        }
      ],
      "stateMutability": "view",
      "type": "function",
      "constant": true
    },
    {
      "inputs": [
        {
          "internalType": "uint256",
          "name": "index",
          "type": "uint256"
        },
        {
          "internalType": "string",
          "name": "description",
          "type": "string"
        }
      ],
      "name": "newProposal",
      "outputs": [],
      "stateMutability": "nonpayable",
      "type": "function"
    },
    {
      "inputs": [
        {
          "internalType": "uint256",
          "name": "index",
          "type": "uint256"
        },
        {
          "internalType": "uint256",
          "name": "votedProposalId",
          "type": "uint256"
        }
      ],
      "name": "doVote",
      "outputs": [],
      "stateMutability": "nonpayable",
      "type": "function"
    },
    {
      "inputs": [
        {
          "internalType": "uint256",
          "name": "index",
          "type": "uint256"
        }
      ],
      "name": "getProposalCount",
      "outputs": [
        {
          "internalType": "uint256",
          "name": "",
          "type": "uint256"
        }
      ],
      "stateMutability": "view",
      "type": "function",
      "constant": true
    },
    {
      "inputs": [
        {
          "internalType": "uint256",
          "name": "index",
          "type": "uint256"
        },
        {
          "internalType": "uint256",
          "name": "ProposalId",
          "type": "uint256"
        }
      ],
      "name": "getProposalDescriptionById",
      "outputs": [
        {
          "internalType": "string",
          "name": "",
          "type": "string"
        }
      ],
      "stateMutability": "view",
      "type": "function",
      "constant": true
    },
    {
      "inputs": [
        {
          "internalType": "uint256",
          "name": "index",
          "type": "uint256"
        }
      ],
      "name": "getWinningProposalDescription",
      "outputs": [
        {
          "internalType": "string",
          "name": "",
          "type": "string"
        }
      ],
      "stateMutability": "view",
      "type": "function",
      "constant": true
    },
    {
      "inputs": [
        {
          "internalType": "uint256",
          "name": "index",
          "type": "uint256"
        },
        {
          "internalType": "uint256",
          "name": "ProposalId",
          "type": "uint256"
        }
      ],
      "name": "getProposalVoteCountById",
      "outputs": [
        {
          "internalType": "uint256",
          "name": "",
          "type": "uint256"
        }
      ],
      "stateMutability": "view",
      "type": "function",
      "constant": true
    },
    {
      "inputs": [
        {
          "internalType": "uint256",
          "name": "index",
          "type": "uint256"
        },
        {
          "internalType": "address",
          "name": "_address",
          "type": "address"
        }
      ],
      "name": "getVotedProposalIdByAddress",
      "outputs": [
        {
          "internalType": "int256",
          "name": "",
          "type": "int256"
        }
      ],
      "stateMutability": "view",
      "type": "function",
      "constant": true
    },
    {
      "inputs": [
        {
          "internalType": "uint256",
          "name": "index",
          "type": "uint256"
        },
        {
          "internalType": "address",
          "name": "_address",
          "type": "address"
        }
      ],
      "name": "hasVoted",
      "outputs": [
        {
          "internalType": "bool",
          "name": "",
          "type": "bool"
        }
      ],
      "stateMutability": "view",
      "type": "function",
      "constant": true
    },
    {
      "inputs": [],
      "name": "getVoteCount",
      "outputs": [
        {
          "internalType": "uint256",
          "name": "",
          "type": "uint256"
        }
      ],
      "stateMutability": "view",
      "type": "function",
      "constant": true
    },
    {
      "inputs": [
        {
          "internalType": "uint256",
          "name": "index",
          "type": "uint256"
        }
      ],
      "name": "getVoteTips",
      "outputs": [
        {
          "internalType": "string",
          "name": "",
          "type": "string"
        }
      ],
      "stateMutability": "view",
      "type": "function",
      "constant": true
    },
    {
      "inputs": [
        {
          "internalType": "uint256",
          "name": "index",
          "type": "uint256"
        }
      ],
      "name": "getFullPersonalVoteInfo",
      "outputs": [
        {
          "internalType": "string",
          "name": "",
          "type": "string"
        },
        {
          "internalType": "uint256",
          "name": "",
          "type": "uint256"
        },
        {
          "internalType": "bool",
          "name": "",
          "type": "bool"
        },
        {
          "internalType": "int256",
          "name": "",
          "type": "int256"
        },
        {
          "internalType": "bool",
          "name": "",
          "type": "bool"
        },
        {
          "internalType": "uint256",
          "name": "",
          "type": "uint256"
        }
      ],
      "stateMutability": "view",
      "type": "function",
      "constant": true
    }
  ],
  "bytecode": "0x608060405234801561001057600080fd5b506131c0806100206000396000f3fe608060405234801561001057600080fd5b50600436106101165760003560e01c8063aeb95a8a116100a2578063e7b3387c11610071578063e7b3387c14610340578063e8882bda1461035e578063ee8ca76e1461038e578063eec3a985146103aa578063efb35b0e146103da57610116565b8063aeb95a8a1461027b578063b8364c71146102ab578063c5dc43a7146102db578063c92201a71461030b57610116565b806343859632116100e957806343859632146101b35780634936c0f6146101e3578063579a6988146102135780636ec11553146102435780636ece7d881461025f57610116565b8063105b2c331461011b5780632a8506671461014b5780632c73cf951461016757806339c7639c14610183575b600080fd5b610135600480360381019061013091906122b3565b61040a565b6040516101429190612620565b60405180910390f35b610165600480360381019061016091906122b3565b610477565b005b610181600480360381019061017c919061223d565b61071d565b005b61019d60048036038101906101989190612286565b6107f4565b6040516101aa9190612620565b60405180910390f35b6101cd60048036038101906101c891906122b3565b610861565b6040516101da9190612620565b60405180910390f35b6101fd60048036038101906101f89190612286565b6108ce565b60405161020a91906128db565b60405180910390f35b61022d60048036038101906102289190612286565b6108f0565b60405161023a9190612620565b60405180910390f35b61025d60048036038101906102589190612286565b61095c565b005b6102796004803603810190610274919061234f565b610f5a565b005b61029560048036038101906102909190612286565b6113f1565b6040516102a29190612671565b60405180910390f35b6102c560048036038101906102c0919061234f565b611498565b6040516102d29190612671565b60405180910390f35b6102f560048036038101906102f09190612286565b6115bd565b604051610302919061263b565b60405180910390f35b61032560048036038101906103209190612286565b6115e9565b60405161033796959493929190612693565b60405180910390f35b61034861192f565b60405161035591906128db565b60405180910390f35b610378600480360381019061037391906122b3565b611939565b6040516103859190612656565b60405180910390f35b6103a860048036038101906103a391906122f3565b611b65565b005b6103c460048036038101906103bf9190612286565b611d70565b6040516103d19190612671565b60405180910390f35b6103f460048036038101906103ef919061234f565b611e20565b60405161040191906128db565b60405180910390f35b600080600084815260200190815260200160002060040160008373ffffffffffffffffffffffffffffffffffffffff1673ffffffffffffffffffffffffffffffffffffffff16815260200190815260200160002060000160009054906101000a900460ff16905092915050565b816104828133611fcc565b6104c1576040517f08c379a00000000000000000000000000000000000000000000000000000000081526004016104b89061279b565b60405180910390fd5b600060058111156104d5576104d4612c46565b5b60008085815260200190815260200160002060030160009054906101000a900460ff16600581111561050a57610509612c46565b5b1461054a576040517f08c379a00000000000000000000000000000000000000000000000000000000081526004016105419061273b565b60405180910390fd5b6000151560008085815260200190815260200160002060040160008473ffffffffffffffffffffffffffffffffffffffff1673ffffffffffffffffffffffffffffffffffffffff16815260200190815260200160002060000160009054906101000a900460ff161515146105f3576040517f08c379a00000000000000000000000000000000000000000000000000000000081526004016105ea906127bb565b60405180910390fd5b6040518060600160405280600115158152602001600015158152602001600081525060008085815260200190815260200160002060040160008473ffffffffffffffffffffffffffffffffffffffff1673ffffffffffffffffffffffffffffffffffffffff16815260200190815260200160002060008201518160000160006101000a81548160ff02191690831515021790555060208201518160000160016101000a81548160ff0219169083151502179055506040820151816001015590505060008084815260200190815260200160002060050160008154809291906106da90612bce565b91905055507ff45b8429c36d478f9a6d081c4811a819b98aa5b608588bed9d406405cf28247383836040516107109291906128f6565b60405180910390a1505050565b806000806001548152602001908152602001600020600001908051906020019061074892919061203a565b5033600080600154815260200190815260200160002060010160006101000a81548173ffffffffffffffffffffffffffffffffffffffff021916908373ffffffffffffffffffffffffffffffffffffffff1602179055507fa578a560f68c1301360cd84f59a6f2fcc8aeefbbc637f3fa97930e1c89cc554f6001546040516107d091906128db565b60405180910390a160018060008282546107ea9190612a28565b9250508190555050565b60003373ffffffffffffffffffffffffffffffffffffffff1660008084815260200190815260200160002060010160009054906101000a900473ffffffffffffffffffffffffffffffffffffffff1673ffffffffffffffffffffffffffffffffffffffff16149050919050565b600080600084815260200190815260200160002060040160008373ffffffffffffffffffffffffffffffffffffffff1673ffffffffffffffffffffffffffffffffffffffff16815260200190815260200160002060000160019054906101000a900460ff16905092915050565b6000806000838152602001908152602001600020600601805490509050919050565b600080600083815260200190815260200160002060040160003373ffffffffffffffffffffffffffffffffffffffff1673ffffffffffffffffffffffffffffffffffffffff16815260200190815260200160002060000160009054906101000a900460ff169050919050565b806109678133611fcc565b6109a6576040517f08c379a000000000000000000000000000000000000000000000000000000000815260040161099d9061279b565b60405180910390fd5b6005808111156109b9576109b8612c46565b5b60008084815260200190815260200160002060030160009054906101000a900460ff1660058111156109ee576109ed612c46565b5b1415610a2f576040517f08c379a0000000000000000000000000000000000000000000000000000000008152600401610a269061289b565b60405180910390fd5b600080600084815260200190815260200160002060030160009054906101000a900460ff16905060006005811115610a6a57610a69612c46565b5b60008085815260200190815260200160002060030160009054906101000a900460ff166005811115610a9f57610a9e612c46565b5b1415610b78576002600080858152602001908152602001600020600501541015610afe576040517f08c379a0000000000000000000000000000000000000000000000000000000008152600401610af59061281b565b60405180910390fd5b600160008085815260200190815260200160002060030160006101000a81548160ff02191690836005811115610b3757610b36612c46565b5b02179055507fb751da72ce1967bb446b81cfd2c497796d3735d046c5448a569a02ee820f9bb683604051610b6b91906128db565b60405180910390a1610ef8565b60016005811115610b8c57610b8b612c46565b5b60008085815260200190815260200160002060030160009054906101000a900460ff166005811115610bc157610bc0612c46565b5b1415610c9d576001600080858152602001908152602001600020600601805490501015610c23576040517f08c379a0000000000000000000000000000000000000000000000000000000008152600401610c1a9061283b565b60405180910390fd5b600260008085815260200190815260200160002060030160006101000a81548160ff02191690836005811115610c5c57610c5b612c46565b5b02179055507f949930d45cdfcfaf90b4f9f08cf19428d80125bf2a76743bc2f439a60417eadf83604051610c9091906128db565b60405180910390a1610ef7565b60026005811115610cb157610cb0612c46565b5b60008085815260200190815260200160002060030160009054906101000a900460ff166005811115610ce657610ce5612c46565b5b1415610d6657600360008085815260200190815260200160002060030160006101000a81548160ff02191690836005811115610d2557610d24612c46565b5b02179055507fa9726274939b9e79c18898615eabbb9d02e7441f167819086bab785ae924de9383604051610d5991906128db565b60405180910390a1610ef6565b60036005811115610d7a57610d79612c46565b5b60008085815260200190815260200160002060030160009054906101000a900460ff166005811115610daf57610dae612c46565b5b1415610e2f57600460008085815260200190815260200160002060030160006101000a81548160ff02191690836005811115610dee57610ded612c46565b5b02179055507f9956bd7b1ae344fbb54dbd02a85e2283bec6bf75f7fccbaa9c2392a715e71e4983604051610e2291906128db565b60405180910390a1610ef5565b60046005811115610e4357610e42612c46565b5b60008085815260200190815260200160002060030160009054906101000a900460ff166005811115610e7857610e77612c46565b5b1415610ef457600560008085815260200190815260200160002060030160006101000a81548160ff02191690836005811115610eb757610eb6612c46565b5b02179055507fd50c1fd4ce30d65682cf92d04facc6fcd5e23d20a9af6d037faf9c7ac945ade683604051610eeb91906128db565b60405180910390a15b5b5b5b5b7fb067099e10826978a3867510ad1e0dcf4ca5cef8e422fd8df2fc3d679167fe8d838260008087815260200190815260200160002060030160009054906101000a900460ff16604051610f4d93929190612956565b60405180910390a1505050565b8160008082815260200190815260200160002060040160003373ffffffffffffffffffffffffffffffffffffffff1673ffffffffffffffffffffffffffffffffffffffff16815260200190815260200160002060000160009054906101000a900460ff16610ffd576040517f08c379a0000000000000000000000000000000000000000000000000000000008152600401610ff4906127fb565b60405180910390fd5b6003600581111561101157611010612c46565b5b60008085815260200190815260200160002060030160009054906101000a900460ff16600581111561104657611045612c46565b5b14611086576040517f08c379a000000000000000000000000000000000000000000000000000000000815260040161107d9061275b565b60405180910390fd5b6000151560008085815260200190815260200160002060040160003373ffffffffffffffffffffffffffffffffffffffff1673ffffffffffffffffffffffffffffffffffffffff16815260200190815260200160002060000160019054906101000a900460ff1615151461112f576040517f08c379a00000000000000000000000000000000000000000000000000000000081526004016111269061271b565b60405180910390fd5b816000808581526020019081526020016000206006018054905011611189576040517f08c379a0000000000000000000000000000000000000000000000000000000008152600401611180906127db565b60405180910390fd5b60008084815260200190815260200160002060060182815481106111b0576111af612ca4565b5b906000526020600020906002020160010160008154809291906111d290612bce565b9190505550600160008085815260200190815260200160002060040160003373ffffffffffffffffffffffffffffffffffffffff1673ffffffffffffffffffffffffffffffffffffffff16815260200190815260200160002060000160016101000a81548160ff0219169083151502179055508160008085815260200190815260200160002060040160003373ffffffffffffffffffffffffffffffffffffffff1673ffffffffffffffffffffffffffffffffffffffff16815260200190815260200160002060010181905550600160008085815260200190815260200160002060060183815481106112c8576112c7612ca4565b5b906000526020600020906002020160010160008282546112e89190612a28565b92505081905550600080848152602001908152602001600020600601828154811061131657611315612ca4565b5b9060005260206000209060020201600101546000808581526020019081526020016000206007015410156113b1578160008085815260200190815260200160002060020181905550600080848152602001908152602001600020600601828154811061138557611384612ca4565b5b906000526020600020906002020160010154600080858152602001908152602001600020600701819055505b7f1abe610cf2bf87e57dcc1181fcf5ac0934e843d8344ab9eed6e86c799f62585e8333846040516113e49392919061291f565b60405180910390a1505050565b6060600080838152602001908152602001600020600001805461141390612b6b565b80601f016020809104026020016040519081016040528092919081815260200182805461143f90612b6b565b801561148c5780601f106114615761010080835404028352916020019161148c565b820191906000526020600020905b81548152906001019060200180831161146f57829003601f168201915b50505050509050919050565b60608160008085815260200190815260200160002060060180549050116114f4576040517f08c379a00000000000000000000000000000000000000000000000000000000081526004016114eb906127db565b60405180910390fd5b600080848152602001908152602001600020600601828154811061151b5761151a612ca4565b5b9060005260206000209060020201600001805461153790612b6b565b80601f016020809104026020016040519081016040528092919081815260200182805461156390612b6b565b80156115b05780601f10611585576101008083540402835291602001916115b0565b820191906000526020600020905b81548152906001019060200180831161159357829003601f168201915b5050505050905092915050565b600080600083815260200190815260200160002060030160009054906101000a900460ff169050919050565b6060600080600080600080600080898152602001908152602001600020600001805461161490612b6b565b80601f016020809104026020016040519081016040528092919081815260200182805461164090612b6b565b801561168d5780601f106116625761010080835404028352916020019161168d565b820191906000526020600020905b81548152906001019060200180831161167057829003601f168201915b5050505050905060003073ffffffffffffffffffffffffffffffffffffffff1663c5dc43a78a6040518263ffffffff1660e01b81526004016116cf91906128db565b60206040518083038186803b1580156116e757600080fd5b505afa1580156116fb573d6000803e3d6000fd5b505050506040513d601f19601f8201168201806040525081019061171f91906121e3565b600581111561173157611730612c46565b5b905060008060008b815260200190815260200160002060040160003373ffffffffffffffffffffffffffffffffffffffff1673ffffffffffffffffffffffffffffffffffffffff16815260200190815260200160002060000160009054906101000a900460ff16905060007fffffffffffffffffffffffffffffffffffffffffffffffffffffffffffffffff9050600082801561185557503073ffffffffffffffffffffffffffffffffffffffff1663438596328d336040518363ffffffff1660e01b81526004016118049291906128f6565b60206040518083038186803b15801561181c57600080fd5b505afa158015611830573d6000803e3d6000fd5b505050506040513d601f19601f8201168201806040525081019061185491906121b6565b5b15611900573073ffffffffffffffffffffffffffffffffffffffff1663e8882bda8d336040518363ffffffff1660e01b81526004016118959291906128f6565b60206040518083038186803b1580156118ad57600080fd5b505afa1580156118c1573d6000803e3d6000fd5b505050506040513d601f19601f820116820180604052508101906118e59190612210565b91506000808d81526020019081526020016000206002015490505b600061190c8d33611fcc565b90508585858584869b509b509b509b509b509b5050505050505091939550919395565b6000600154905090565b600060058081111561194e5761194d612c46565b5b60008085815260200190815260200160002060030160009054906101000a900460ff16600581111561198357611982612c46565b5b14806119d557506003600581111561199e5761199d612c46565b5b60008085815260200190815260200160002060030160009054906101000a900460ff1660058111156119d3576119d2612c46565b5b145b80611a265750600460058111156119ef576119ee612c46565b5b60008085815260200190815260200160002060030160009054906101000a900460ff166005811115611a2457611a23612c46565b5b145b611a65576040517f08c379a0000000000000000000000000000000000000000000000000000000008152600401611a5c9061285b565b60405180910390fd5b60008084815260200190815260200160002060040160008373ffffffffffffffffffffffffffffffffffffffff1673ffffffffffffffffffffffffffffffffffffffff16815260200190815260200160002060000160019054906101000a900460ff16611b07576040517f08c379a0000000000000000000000000000000000000000000000000000000008152600401611afe9061287b565b60405180910390fd5b60008084815260200190815260200160002060040160008373ffffffffffffffffffffffffffffffffffffffff1673ffffffffffffffffffffffffffffffffffffffff16815260200190815260200160002060010154905092915050565b8160008082815260200190815260200160002060040160003373ffffffffffffffffffffffffffffffffffffffff1673ffffffffffffffffffffffffffffffffffffffff16815260200190815260200160002060000160009054906101000a900460ff16611c08576040517f08c379a0000000000000000000000000000000000000000000000000000000008152600401611bff906127fb565b60405180910390fd5b60016005811115611c1c57611c1b612c46565b5b60008085815260200190815260200160002060030160009054906101000a900460ff166005811115611c5157611c50612c46565b5b14611c91576040517f08c379a0000000000000000000000000000000000000000000000000000000008152600401611c889061277b565b60405180910390fd5b6000808481526020019081526020016000206006016040518060400160405280848152602001600081525090806001815401808255809150506001900390600052602060002090600202016000909190919091506000820151816000019080519060200190611d0192919061203a565b506020820151816001015550507fca195036d7c4d40b171ad51e9c891c830a0ad9a5e114b5b075cdf791317e300c83600160008087815260200190815260200160002060060180549050611d559190612a7e565b604051611d6392919061298d565b60405180910390a1505050565b6060600580811115611d8557611d84612c46565b5b60008084815260200190815260200160002060030160009054906101000a900460ff166005811115611dba57611db9612c46565b5b14611dfa576040517f08c379a0000000000000000000000000000000000000000000000000000000008152600401611df1906128bb565b60405180910390fd5b611e198260008085815260200190815260200160002060020154611498565b9050919050565b6000823373ffffffffffffffffffffffffffffffffffffffff1660008083815260200190815260200160002060010160009054906101000a900473ffffffffffffffffffffffffffffffffffffffff1673ffffffffffffffffffffffffffffffffffffffff161480611ef1575060008082815260200190815260200160002060040160003373ffffffffffffffffffffffffffffffffffffffff1673ffffffffffffffffffffffffffffffffffffffff16815260200190815260200160002060000160009054906101000a900460ff165b611f30576040517f08c379a0000000000000000000000000000000000000000000000000000000008152600401611f27906126fb565b60405180910390fd5b826000808681526020019081526020016000206006018054905011611f8a576040517f08c379a0000000000000000000000000000000000000000000000000000000008152600401611f81906127db565b60405180910390fd5b6000808581526020019081526020016000206006018381548110611fb157611fb0612ca4565b5b90600052602060002090600202016001015491505092915050565b60008173ffffffffffffffffffffffffffffffffffffffff1660008085815260200190815260200160002060010160009054906101000a900473ffffffffffffffffffffffffffffffffffffffff1673ffffffffffffffffffffffffffffffffffffffff1614905092915050565b82805461204690612b6b565b90600052602060002090601f01602090048101928261206857600085556120af565b82601f1061208157805160ff19168380011785556120af565b828001600101855582156120af579182015b828111156120ae578251825591602001919060010190612093565b5b5090506120bc91906120c0565b5090565b5b808211156120d95760008160009055506001016120c1565b5090565b60006120f06120eb846129db565b6129b6565b90508281526020810184848401111561210c5761210b612d07565b5b612117848285612b29565b509392505050565b60008135905061212e8161311e565b92915050565b60008151905061214381613135565b92915050565b6000815190506121588161314c565b92915050565b60008151905061216d8161315c565b92915050565b600082601f83011261218857612187612d02565b5b81356121988482602086016120dd565b91505092915050565b6000813590506121b081613173565b92915050565b6000602082840312156121cc576121cb612d11565b5b60006121da84828501612134565b91505092915050565b6000602082840312156121f9576121f8612d11565b5b600061220784828501612149565b91505092915050565b60006020828403121561222657612225612d11565b5b60006122348482850161215e565b91505092915050565b60006020828403121561225357612252612d11565b5b600082013567ffffffffffffffff81111561227157612270612d0c565b5b61227d84828501612173565b91505092915050565b60006020828403121561229c5761229b612d11565b5b60006122aa848285016121a1565b91505092915050565b600080604083850312156122ca576122c9612d11565b5b60006122d8858286016121a1565b92505060206122e98582860161211f565b9150509250929050565b6000806040838503121561230a57612309612d11565b5b6000612318858286016121a1565b925050602083013567ffffffffffffffff81111561233957612338612d0c565b5b61234585828601612173565b9150509250929050565b6000806040838503121561236657612365612d11565b5b6000612374858286016121a1565b9250506020612385858286016121a1565b9150509250929050565b61239881612ab2565b82525050565b6123a781612ac4565b82525050565b6123b681612b17565b82525050565b6123c581612ae3565b82525050565b60006123d682612a0c565b6123e08185612a17565b93506123f0818560208601612b38565b6123f981612d16565b840191505092915050565b6000612411601683612a17565b915061241c82612d27565b602082019050919050565b6000612434601483612a17565b915061243f82612d50565b602082019050919050565b6000612457604583612a17565b915061246282612d79565b606082019050919050565b600061247a604c83612a17565b915061248582612dee565b606082019050919050565b600061249d605583612a17565b91506124a882612e63565b606082019050919050565b60006124c0603183612a17565b91506124cb82612ed8565b604082019050919050565b60006124e3601a83612a17565b91506124ee82612f27565b602082019050919050565b6000612506601d83612a17565b915061251182612f50565b602082019050919050565b6000612529603383612a17565b915061253482612f79565b604082019050919050565b600061254c603b83612a17565b915061255782612fc8565b604082019050919050565b600061256f603d83612a17565b915061257a82613017565b604082019050919050565b6000612592601483612a17565b915061259d82613066565b602082019050919050565b60006125b5601a83612a17565b91506125c08261308f565b602082019050919050565b60006125d8601883612a17565b91506125e3826130b8565b602082019050919050565b60006125fb601483612a17565b9150612606826130e1565b602082019050919050565b61261a81612b0d565b82525050565b6000602082019050612635600083018461239e565b92915050565b600060208201905061265060008301846123ad565b92915050565b600060208201905061266b60008301846123bc565b92915050565b6000602082019050818103600083015261268b81846123cb565b905092915050565b600060c08201905081810360008301526126ad81896123cb565b90506126bc6020830188612611565b6126c9604083018761239e565b6126d660608301866123bc565b6126e3608083018561239e565b6126f060a0830184612611565b979650505050505050565b6000602082019050818103600083015261271481612404565b9050919050565b6000602082019050818103600083015261273481612427565b9050919050565b600060208201905081810360008301526127548161244a565b9050919050565b600060208201905081810360008301526127748161246d565b9050919050565b6000602082019050818103600083015261279481612490565b9050919050565b600060208201905081810360008301526127b4816124b3565b9050919050565b600060208201905081810360008301526127d4816124d6565b9050919050565b600060208201905081810360008301526127f4816124f9565b9050919050565b600060208201905081810360008301526128148161251c565b9050919050565b600060208201905081810360008301526128348161253f565b9050919050565b6000602082019050818103600083015261285481612562565b9050919050565b6000602082019050818103600083015261287481612585565b9050919050565b60006020820190508181036000830152612894816125a8565b9050919050565b600060208201905081810360008301526128b4816125cb565b9050919050565b600060208201905081810360008301526128d4816125ee565b9050919050565b60006020820190506128f06000830184612611565b92915050565b600060408201905061290b6000830185612611565b612918602083018461238f565b9392505050565b60006060820190506129346000830186612611565b612941602083018561238f565b61294e6040830184612611565b949350505050565b600060608201905061296b6000830186612611565b61297860208301856123ad565b61298560408301846123ad565b949350505050565b60006040820190506129a26000830185612611565b6129af6020830184612611565b9392505050565b60006129c06129d1565b90506129cc8282612b9d565b919050565b6000604051905090565b600067ffffffffffffffff8211156129f6576129f5612cd3565b5b6129ff82612d16565b9050602081019050919050565b600081519050919050565b600082825260208201905092915050565b6000612a3382612b0d565b9150612a3e83612b0d565b9250827fffffffffffffffffffffffffffffffffffffffffffffffffffffffffffffffff03821115612a7357612a72612c17565b5b828201905092915050565b6000612a8982612b0d565b9150612a9483612b0d565b925082821015612aa757612aa6612c17565b5b828203905092915050565b6000612abd82612aed565b9050919050565b60008115159050919050565b6000819050612ade8261310a565b919050565b6000819050919050565b600073ffffffffffffffffffffffffffffffffffffffff82169050919050565b6000819050919050565b6000612b2282612ad0565b9050919050565b82818337600083830152505050565b60005b83811015612b56578082015181840152602081019050612b3b565b83811115612b65576000848401525b50505050565b60006002820490506001821680612b8357607f821691505b60208210811415612b9757612b96612c75565b5b50919050565b612ba682612d16565b810181811067ffffffffffffffff82111715612bc557612bc4612cd3565b5b80604052505050565b6000612bd982612b0d565b91507fffffffffffffffffffffffffffffffffffffffffffffffffffffffffffffffff821415612c0c57612c0b612c17565b5b600182019050919050565b7f4e487b7100000000000000000000000000000000000000000000000000000000600052601160045260246000fd5b7f4e487b7100000000000000000000000000000000000000000000000000000000600052602160045260246000fd5b7f4e487b7100000000000000000000000000000000000000000000000000000000600052602260045260246000fd5b7f4e487b7100000000000000000000000000000000000000000000000000000000600052603260045260246000fd5b7f4e487b7100000000000000000000000000000000000000000000000000000000600052604160045260246000fd5b600080fd5b600080fd5b600080fd5b600080fd5b6000601f19601f8301169050919050565b7f4f776e61626c65206f72206c6973746564206f6e6c7900000000000000000000600082015250565b7f596f752063616e207420766f7465207477696365000000000000000000000000600082015250565b7f556e61626c6520746f20726567697374657220616e796f6e652061667465722060008201527f746865205265676973746572696e67566f7465727320776f726b666c6f77207360208201527f7461747573000000000000000000000000000000000000000000000000000000604082015250565b7f556e61626c6520746f20766f7465207768696c65207468652063757272656e7460008201527f20776f726b666c6f7720737461747573206973206e6f7420566f74696e67536560208201527f7373696f6e537461727465640000000000000000000000000000000000000000604082015250565b7f556e61626c6520746f20726567697374657220616e792070726f706f73616c7360008201527f2e2050726f706f73616c7320526567697374726174696f6e206e6f742073746160208201527f72746564206f7220616c726561647920656e6465640000000000000000000000604082015250565b7f4f776e61626c653a2063616c6c65722063616e206265206f6e6c79207468652060008201527f6f776e6572206f662074686520766f7465000000000000000000000000000000602082015250565b7f4164647265737320616c72656164792072656769737465726564000000000000600082015250565b7f766f74656450726f706f73616c496420646f65736e2074206578697374000000600082015250565b7f4c69737465643a2063616c6c657220686173206e6f74206265656e207265676960008201527f73746572656420627920746865206f776e657200000000000000000000000000602082015250565b7f57652073686f756c642068617665206174206c656173742074776f20766f746560008201527f727320746f20636f6e74696e75652074686520776f726b666c6f770000000000602082015250565b7f57652073686f756c642068617665206174206c65617374206f6e652050726f7060008201527f6f73616c20746f20636f6e74696e75652074686520776f726b666c6f77000000602082015250565b7f566f7465206e6f74207374617274656420796574000000000000000000000000600082015250565b7f54686973206164647265737320686173206e6f7420766f746564000000000000600082015250565b7f54686520766f746520697320616c726561647920646f6e650000000000000000600082015250565b7f566f7465206e6f742074616c6c69656420796574000000000000000000000000600082015250565b6006811061311b5761311a612c46565b5b50565b61312781612ab2565b811461313257600080fd5b50565b61313e81612ac4565b811461314957600080fd5b50565b6006811061315957600080fd5b50565b61316581612ae3565b811461317057600080fd5b50565b61317c81612b0d565b811461318757600080fd5b5056fea26469706673582212204b0a7ae537ab029ebf45ed983eb8daa98c8a0d34d6c939b60c254813b490cda964736f6c63430008070033",
  "immutableReferences": {},
  "source": "// contracts/Defi_SystemeDevotes[index].sol\r\n// SPDX-License-Identifier: MIT\r\n\r\npragma solidity 0.8.7;\r\n \r\ncontract Voting {\r\n    // Structures\r\n    struct Voter {\r\n        bool isRegistered;\r\n        bool hasVoted;\r\n        uint votedProposalId;\r\n    }\r\n      \r\n    struct Proposal {\r\n        string description;\r\n        uint voteCount;\r\n    }\r\n    \r\n    // Enumeration\r\n    enum WorkflowStatus {\r\n        RegisteringVoters,\r\n        ProposalsRegistrationStarted,\r\n        ProposalsRegistrationEnded,\r\n        VotingSessionStarted,\r\n        VotingSessionEnded,\r\n        VotesTallied\r\n    } \r\n    \r\n    // vote mapping\r\n    struct Vote{\r\n        // Subject of the vote\r\n        string tips;\r\n        // Owner address\r\n        address owner;\r\n        // Winner ID\r\n        uint winningProposalId;\r\n        // Status ID\r\n        WorkflowStatus statusId;\r\n        //Voter mapping\r\n        mapping (address => Voter) voters;\r\n        uint votersCount;\r\n        // Proposal listing\r\n        Proposal[] proposals;\r\n        uint maxVoteCount;\r\n    }\r\n    mapping (uint => Vote) votes;\r\n    uint private votesCount;\r\n    \r\n    // Events\r\n    event VoteCreated(uint voteIndex);\r\n    event VoterRegistered(uint voteIndex, address voterAddress);\r\n    event ProposalsRegistrationStarted(uint voteIndex);\r\n    event ProposalsRegistrationEnded(uint voteIndex);\r\n    event ProposalRegistered(uint voteIndex, uint proposalId);\r\n    event VotingSessionStarted(uint voteIndex);\r\n    event VotingSessionEnded(uint voteIndex);\r\n    event Voted (uint voteIndex, address voter, uint proposalId);\r\n    event VotesTallied(uint voteIndex);\r\n    event WorkflowStatusChange(uint voteIndex, WorkflowStatus previousStatus, WorkflowStatus newStatus);\r\n    event log(address out);\r\n    // My work\r\n    \r\n    modifier onlyRegistered(uint index){\r\n        require(votes[index].voters[msg.sender].isRegistered, 'Listed: caller has not been registered by the owner');\r\n        _;\r\n    }\r\n\r\n    // Ask if the sender if the vote owner\r\n    function isRegistered(uint index) external view returns(bool){\r\n        return votes[index].voters[msg.sender].isRegistered;\r\n    }\r\n\r\n    modifier onlyOwner(uint index){\r\n        // emit log(votes[index].owner);\r\n        // emit log(msg.sender);\r\n        require(_isOwner(index, msg.sender), 'Ownable: caller can be only the owner of the vote');\r\n        _;\r\n    }\r\n\r\n    // Ask if the sender if the vote owner\r\n    function isOwner(uint index) external view returns(bool){\r\n        return votes[index].owner==msg.sender;\r\n    }\r\n\r\n    function _isOwner(uint index, address _address) private view returns (bool) {\r\n        return votes[index].owner==_address;\r\n    }\r\n\r\n    modifier onlyRegisteredOrOwner(uint index){\r\n        require(votes[index].owner==msg.sender || votes[index].voters[msg.sender].isRegistered, 'Ownable or listed only');\r\n        _;\r\n    }\r\n\r\n    // Vote structure management\r\n    // Add a new vote to the pool\r\n    function newVote(string memory tips) external {\r\n        votes[votesCount].tips = tips;\r\n        votes[votesCount].owner = msg.sender;\r\n        emit VoteCreated(votesCount);\r\n        votesCount+=1;\r\n    }\r\n    // Internal mecanisems : \r\n    // function \r\n    // Externals mechanismes\r\n    // get the number of vote created\r\n\r\n    // I decided to use only one function insteed of specific status setter like \"setProposalsRegistrationStartedStatus\"\r\n    // It ensure the owner respect the defined workflow.\r\n    function setNextWorkflowStatus(uint index) external onlyOwner(index){\r\n        \r\n        require(votes[index].statusId != WorkflowStatus.VotesTallied, 'The vote is already done');\r\n        // keep the old status for the \"WorkflowStatusChange\" event.\r\n        WorkflowStatus oldStatus = votes[index].statusId;\r\n        \r\n        // State machine for the status workflow\r\n        // 0_ Voters registration by the owner.\r\n        // 0 => 1_ I defined a minimum of two voters, otherwise the vote would not be necessary.\r\n        // Proposals registration for they registered address.\r\n        if (votes[index].statusId==WorkflowStatus.RegisteringVoters){\r\n            require(votes[index].votersCount>=2, 'We should have at least two voters to continue the workflow');\r\n            votes[index].statusId = WorkflowStatus.ProposalsRegistrationStarted;\r\n            emit ProposalsRegistrationStarted(index);\r\n        }\r\n        // 1 => 2_ I defined a minimum of one proposal because it's the minimum to have an outcome.\r\n        // Close the registration period.\r\n        else if (votes[index].statusId==WorkflowStatus.ProposalsRegistrationStarted){\r\n            require(votes[index].proposals.length>=1, 'We should have at least one Proposal to continue the workflow');\r\n            votes[index].statusId = WorkflowStatus.ProposalsRegistrationEnded;\r\n            emit ProposalsRegistrationEnded(index);\r\n        }\r\n        // 2 => 3_ I did not launch the voting session right afterwards to let the voters see the proposals\r\n        // Open the votes[index].\r\n        else if (votes[index].statusId==WorkflowStatus.ProposalsRegistrationEnded){\r\n            votes[index].statusId = WorkflowStatus.VotingSessionStarted;\r\n            emit VotingSessionStarted(index);\r\n        }\r\n        // 3 => 4_ Close the vote\r\n        else if (votes[index].statusId==WorkflowStatus.VotingSessionStarted){\r\n            votes[index].statusId = WorkflowStatus.VotingSessionEnded;\r\n            emit VotingSessionEnded(index);\r\n        }\r\n            // 4 => 5_ I did not launch the votes counting right after the VotingSessionEnded because there is two separated points in the exercice.\r\n            // But all results are publique so the suspense would not be there anyway.\r\n        else if (votes[index].statusId==WorkflowStatus.VotingSessionEnded){\r\n\r\n            votes[index].statusId = WorkflowStatus.VotesTallied;\r\n            emit VotesTallied(index);\r\n        }\r\n        emit WorkflowStatusChange(index, oldStatus, votes[index].statusId);\r\n    }\r\n    \r\n    // Get the current status of the vote as an ID (not very human readeable)\r\n    function getWorkflowStatus(uint index) external view returns (WorkflowStatus) {\r\n        return votes[index].statusId;\r\n    }\r\n    \r\n    // Let the owner to register any etherum address to take part in the votes[index].\r\n    function authorize( uint index, address _address) external onlyOwner(index){\r\n        \r\n        require(votes[index].statusId==WorkflowStatus.RegisteringVoters, 'Unable to register anyone after the RegisteringVoters workflow status');\r\n        require(votes[index].voters[_address].isRegistered==false, 'Address already registered');\r\n        votes[index].voters[_address] = Voter({isRegistered: true, hasVoted: false, votedProposalId: 0});\r\n        // The vote counter exists to ensure that there is a minimum of two. \r\n        votes[index].votersCount++;\r\n        emit VoterRegistered(index, _address);\r\n    }\r\n\r\n    function autorized(uint index, address _address) external view returns (bool){\r\n        return votes[index].voters[_address].isRegistered;\r\n    }\r\n    \r\n    // Registered address can add any proposition description at multiple times\r\n    function newProposal(uint index, string memory description) external onlyRegistered(index){\r\n        \r\n        require(votes[index].statusId==WorkflowStatus.ProposalsRegistrationStarted, 'Unable to register any proposals. Proposals Registration not started or already ended');\r\n        votes[index].proposals.push(Proposal({description: description, voteCount:0}));\r\n        emit ProposalRegistered(index, votes[index].proposals.length-1);\r\n    }\r\n    \r\n    // Registered address can vote for one of the registered proposals\r\n    function doVote(uint index, uint votedProposalId) external onlyRegistered(index){\r\n        \r\n        require(votes[index].statusId==WorkflowStatus.VotingSessionStarted, 'Unable to vote while the current workflow status is not VotingSessionStarted');\r\n        require(votes[index].voters[msg.sender].hasVoted==false, 'You can t vote twice');\r\n        require(votes[index].proposals.length>votedProposalId, 'votedProposalId doesn t exist');\r\n        votes[index].proposals[votedProposalId].voteCount++;\r\n        votes[index].voters[msg.sender].hasVoted = true;\r\n        votes[index].voters[msg.sender].votedProposalId = votedProposalId;\r\n        votes[index].proposals[votedProposalId].voteCount += 1;\r\n        // Check the winning proposal\r\n        if (votes[index].maxVoteCount<votes[index].proposals[votedProposalId].voteCount){\r\n            votes[index].winningProposalId = votedProposalId;\r\n            votes[index].maxVoteCount = votes[index].proposals[votedProposalId].voteCount;\r\n        }\r\n        emit Voted(index, msg.sender, votedProposalId);\r\n    }\r\n    \r\n    // Some usefull getter\r\n    function getProposalCount(uint index) external view returns(uint){\r\n        return votes[index].proposals.length;\r\n    }//onlyRegisteredOrOwner(index)\r\n    function getProposalDescriptionById(uint index, uint ProposalId) public view returns (string memory){\r\n        require(votes[index].proposals.length>ProposalId, 'votedProposalId doesn t exist');\r\n        return votes[index].proposals[ProposalId].description;\r\n    }\r\n    \r\n    // As explaned in the exercise, everyone can check the final details of the winning proposal so i did'n put the onlyRegistered modifier.\r\n    function getWinningProposalDescription(uint index) external view returns (string memory){\r\n        require(votes[index].statusId==WorkflowStatus.VotesTallied, 'Vote not tallied yet');\r\n        return getProposalDescriptionById(index, votes[index].winningProposalId);\r\n    }\r\n    \r\n    function getProposalVoteCountById(uint index, uint ProposalId) external view onlyRegisteredOrOwner(index) returns (uint){\r\n        require(votes[index].proposals.length>ProposalId, 'votedProposalId doesn t exist');\r\n        return votes[index].proposals[ProposalId].voteCount;\r\n    }\r\n    \r\n    function getVotedProposalIdByAddress(uint index, address _address) external view returns (int){//onlyRegisteredOrOwner(index)\r\n        \r\n        require(votes[index].statusId==WorkflowStatus.VotesTallied || votes[index].statusId==WorkflowStatus.VotingSessionStarted || votes[index].statusId==WorkflowStatus.VotingSessionEnded, 'Vote not started yet');\r\n        require(votes[index].voters[_address].hasVoted, 'This address has not voted');\r\n        return int(votes[index].voters[_address].votedProposalId);\r\n    }\r\n\r\n    function hasVoted(uint index, address _address) external view  returns (bool){//onlyRegisteredOrOwner(index)\r\n        return votes[index].voters[_address].hasVoted;\r\n    }\r\n\r\n    function getVoteCount() external view returns (uint){\r\n        return votesCount;\r\n    }\r\n    // get the vote purpos at the given index\r\n    function getVoteTips(uint index) external view returns(string memory){\r\n        return votes[index].tips;\r\n    }\r\n\r\n    // get front vote informations\r\n    function getFullPersonalVoteInfo(uint index) external view returns(string memory, uint, bool, int, bool, uint){\r\n        string memory tips = votes[index].tips;\r\n        uint state = uint(this.getWorkflowStatus(index));\r\n        bool registered = votes[index].voters[msg.sender].isRegistered;\r\n        int votedIndex = -1;\r\n        uint winningProposalId = 0;\r\n        if (registered && this.hasVoted(index, msg.sender)){\r\n            votedIndex = this.getVotedProposalIdByAddress(index, msg.sender);//onlyRegisteredOrOwner(index)\r\n            winningProposalId = votes[index].winningProposalId;\r\n        }\r\n        \r\n        bool owner = _isOwner(index, msg.sender);\r\n        return (tips, state, registered, votedIndex, owner, winningProposalId);\r\n    }\r\n    \r\n}\r\n",
  "sourcePath": "G:\\Developement\\BC\\Alyra\\Alyra\\Defis\\2-Suite-SystemeDeVote\\contracts\\Voting.sol",
  "compiler": {
    "name": "solc",
    "version": "0.8.7+commit.e28d00a7.Emscripten.clang"
  },
  "schemaVersion": "3.4.3",
  "updatedAt": "2021-11-08T16:31:31.022Z",
  "networkType": "ethereum",
  "devdoc": {
    "kind": "dev",
    "methods": {},
    "version": 1
  },
  "userdoc": {
    "kind": "user",
    "methods": {},
    "version": 1
  }
}