{
  "contractName": "Voting",
  "abi": [
    {
      "anonymous": false,
      "inputs": [
        {
          "indexed": false,
          "internalType": "uint256",
          "name": "voteIndex",
          "type": "uint256"
        },
        {
          "indexed": false,
          "internalType": "uint256",
          "name": "proposalId",
          "type": "uint256"
        }
      ],
      "name": "ProposalRegistered",
      "type": "event"
    },
    {
      "anonymous": false,
      "inputs": [
        {
          "indexed": false,
          "internalType": "uint256",
          "name": "voteIndex",
          "type": "uint256"
        }
      ],
      "name": "ProposalsRegistrationEnded",
      "type": "event"
    },
    {
      "anonymous": false,
      "inputs": [
        {
          "indexed": false,
          "internalType": "uint256",
          "name": "voteIndex",
          "type": "uint256"
        }
      ],
      "name": "ProposalsRegistrationStarted",
      "type": "event"
    },
    {
      "anonymous": false,
      "inputs": [
        {
          "indexed": false,
          "internalType": "uint256",
          "name": "voteIndex",
          "type": "uint256"
        }
      ],
      "name": "VoteCreated",
      "type": "event"
    },
    {
      "anonymous": false,
      "inputs": [
        {
          "indexed": false,
          "internalType": "uint256",
          "name": "voteIndex",
          "type": "uint256"
        },
        {
          "indexed": false,
          "internalType": "address",
          "name": "voter",
          "type": "address"
        },
        {
          "indexed": false,
          "internalType": "uint256",
          "name": "proposalId",
          "type": "uint256"
        }
      ],
      "name": "Voted",
      "type": "event"
    },
    {
      "anonymous": false,
      "inputs": [
        {
          "indexed": false,
          "internalType": "uint256",
          "name": "voteIndex",
          "type": "uint256"
        },
        {
          "indexed": false,
          "internalType": "address",
          "name": "voterAddress",
          "type": "address"
        }
      ],
      "name": "VoterRegistered",
      "type": "event"
    },
    {
      "anonymous": false,
      "inputs": [
        {
          "indexed": false,
          "internalType": "uint256",
          "name": "voteIndex",
          "type": "uint256"
        }
      ],
      "name": "VotesTallied",
      "type": "event"
    },
    {
      "anonymous": false,
      "inputs": [
        {
          "indexed": false,
          "internalType": "uint256",
          "name": "voteIndex",
          "type": "uint256"
        }
      ],
      "name": "VotingSessionEnded",
      "type": "event"
    },
    {
      "anonymous": false,
      "inputs": [
        {
          "indexed": false,
          "internalType": "uint256",
          "name": "voteIndex",
          "type": "uint256"
        }
      ],
      "name": "VotingSessionStarted",
      "type": "event"
    },
    {
      "anonymous": false,
      "inputs": [
        {
          "indexed": false,
          "internalType": "uint256",
          "name": "voteIndex",
          "type": "uint256"
        },
        {
          "indexed": false,
          "internalType": "enum Voting.WorkflowStatus",
          "name": "previousStatus",
          "type": "uint8"
        },
        {
          "indexed": false,
          "internalType": "enum Voting.WorkflowStatus",
          "name": "newStatus",
          "type": "uint8"
        }
      ],
      "name": "WorkflowStatusChange",
      "type": "event"
    },
    {
      "inputs": [
        {
          "internalType": "string",
          "name": "tips",
          "type": "string"
        }
      ],
      "name": "newVote",
      "outputs": [],
      "stateMutability": "nonpayable",
      "type": "function"
    },
    {
      "inputs": [
        {
          "internalType": "uint256",
          "name": "index",
          "type": "uint256"
        }
      ],
      "name": "setNextWorkflowStatus",
      "outputs": [],
      "stateMutability": "nonpayable",
      "type": "function"
    },
    {
      "inputs": [
        {
          "internalType": "uint256",
          "name": "index",
          "type": "uint256"
        },
        {
          "internalType": "address",
          "name": "_address",
          "type": "address"
        }
      ],
      "name": "authorize",
      "outputs": [],
      "stateMutability": "nonpayable",
      "type": "function"
    },
    {
      "inputs": [
        {
          "internalType": "uint256",
          "name": "index",
          "type": "uint256"
        },
        {
          "internalType": "string",
          "name": "description",
          "type": "string"
        }
      ],
      "name": "newProposal",
      "outputs": [],
      "stateMutability": "nonpayable",
      "type": "function"
    },
    {
      "inputs": [
        {
          "internalType": "uint256",
          "name": "index",
          "type": "uint256"
        },
        {
          "internalType": "uint256",
          "name": "votedProposalId",
          "type": "uint256"
        }
      ],
      "name": "doVote",
      "outputs": [],
      "stateMutability": "nonpayable",
      "type": "function"
    },
    {
      "inputs": [],
      "name": "getVoteCount",
      "outputs": [
        {
          "internalType": "uint256",
          "name": "",
          "type": "uint256"
        }
      ],
      "stateMutability": "view",
      "type": "function",
      "constant": true
    },
    {
      "inputs": [
        {
          "internalType": "uint256",
          "name": "index",
          "type": "uint256"
        }
      ],
      "name": "getVoteTips",
      "outputs": [
        {
          "internalType": "string",
          "name": "",
          "type": "string"
        }
      ],
      "stateMutability": "view",
      "type": "function",
      "constant": true
    },
    {
      "inputs": [
        {
          "internalType": "uint256",
          "name": "index",
          "type": "uint256"
        }
      ],
      "name": "isOwner",
      "outputs": [
        {
          "internalType": "bool",
          "name": "",
          "type": "bool"
        }
      ],
      "stateMutability": "view",
      "type": "function",
      "constant": true
    },
    {
      "inputs": [
        {
          "internalType": "uint256",
          "name": "index",
          "type": "uint256"
        }
      ],
      "name": "isRegistered",
      "outputs": [
        {
          "internalType": "bool",
          "name": "",
          "type": "bool"
        }
      ],
      "stateMutability": "view",
      "type": "function",
      "constant": true
    },
    {
      "inputs": [
        {
          "internalType": "uint256",
          "name": "index",
          "type": "uint256"
        }
      ],
      "name": "getWorkflowStatus",
      "outputs": [
        {
          "internalType": "enum Voting.WorkflowStatus",
          "name": "",
          "type": "uint8"
        }
      ],
      "stateMutability": "view",
      "type": "function",
      "constant": true
    },
    {
      "inputs": [
        {
          "internalType": "uint256",
          "name": "index",
          "type": "uint256"
        }
      ],
      "name": "getProposalCount",
      "outputs": [
        {
          "internalType": "uint256",
          "name": "",
          "type": "uint256"
        }
      ],
      "stateMutability": "view",
      "type": "function",
      "constant": true
    },
    {
      "inputs": [
        {
          "internalType": "uint256",
          "name": "index",
          "type": "uint256"
        },
        {
          "internalType": "uint256",
          "name": "ProposalId",
          "type": "uint256"
        }
      ],
      "name": "getProposalDescriptionById",
      "outputs": [
        {
          "internalType": "string",
          "name": "",
          "type": "string"
        }
      ],
      "stateMutability": "view",
      "type": "function",
      "constant": true
    },
    {
      "inputs": [
        {
          "internalType": "uint256",
          "name": "index",
          "type": "uint256"
        }
      ],
      "name": "getWinningProposalDescription",
      "outputs": [
        {
          "internalType": "string",
          "name": "",
          "type": "string"
        }
      ],
      "stateMutability": "view",
      "type": "function",
      "constant": true
    },
    {
      "inputs": [
        {
          "internalType": "uint256",
          "name": "index",
          "type": "uint256"
        },
        {
          "internalType": "uint256",
          "name": "ProposalId",
          "type": "uint256"
        }
      ],
      "name": "getProposalVoteCountById",
      "outputs": [
        {
          "internalType": "uint256",
          "name": "",
          "type": "uint256"
        }
      ],
      "stateMutability": "view",
      "type": "function",
      "constant": true
    },
    {
      "inputs": [
        {
          "internalType": "uint256",
          "name": "index",
          "type": "uint256"
        },
        {
          "internalType": "address",
          "name": "_address",
          "type": "address"
        }
      ],
      "name": "getVotedProposalIdByAddress",
      "outputs": [
        {
          "internalType": "int256",
          "name": "",
          "type": "int256"
        }
      ],
      "stateMutability": "view",
      "type": "function",
      "constant": true
    },
    {
      "inputs": [
        {
          "internalType": "uint256",
          "name": "index",
          "type": "uint256"
        },
        {
          "internalType": "address",
          "name": "_address",
          "type": "address"
        }
      ],
      "name": "hasVoted",
      "outputs": [
        {
          "internalType": "bool",
          "name": "",
          "type": "bool"
        }
      ],
      "stateMutability": "view",
      "type": "function",
      "constant": true
    },
    {
      "inputs": [
        {
          "internalType": "uint256",
          "name": "index",
          "type": "uint256"
        }
      ],
      "name": "getFullPersonalVoteInfo",
      "outputs": [
        {
          "internalType": "string",
          "name": "",
          "type": "string"
        },
        {
          "internalType": "uint256",
          "name": "",
          "type": "uint256"
        },
        {
          "internalType": "bool",
          "name": "",
          "type": "bool"
        },
        {
          "internalType": "int256",
          "name": "",
          "type": "int256"
        },
        {
          "internalType": "bool",
          "name": "",
          "type": "bool"
        },
        {
          "internalType": "uint256",
          "name": "",
          "type": "uint256"
        }
      ],
      "stateMutability": "view",
      "type": "function",
      "constant": true
    }
  ],
  "bytecode": "0x608060405234801561001057600080fd5b506133a5806100206000396000f3fe608060405234801561001057600080fd5b506004361061010b5760003560e01c8063aeb95a8a116100a2578063e7b3387c11610071578063e7b3387c14610305578063e8882bda14610323578063ee8ca76e14610353578063eec3a9851461036f578063efb35b0e1461039f5761010b565b8063aeb95a8a14610240578063b8364c7114610270578063c5dc43a7146102a0578063c92201a7146102d05761010b565b80634936c0f6116100de5780634936c0f6146101a8578063579a6988146101d85780636ec11553146102085780636ece7d88146102245761010b565b80632a850667146101105780632c73cf951461012c57806339c7639c146101485780634385963214610178575b600080fd5b61012a6004803603810190610125919061253c565b6103cf565b005b610146600480360381019061014191906124c6565b610675565b005b610162600480360381019061015d919061250f565b610790565b60405161016f91906128ef565b60405180910390f35b610192600480360381019061018d919061253c565b610841565b60405161019f91906128ef565b60405180910390f35b6101c260048036038101906101bd919061250f565b6108f2565b6040516101cf9190612bea565b60405180910390f35b6101f260048036038101906101ed919061250f565b610958565b6040516101ff91906128ef565b60405180910390f35b610222600480360381019061021d919061250f565b610a08565b005b61023e600480360381019061023991906125d8565b611006565b005b61025a6004803603810190610255919061250f565b61149d565b6040516102679190612940565b60405180910390f35b61028a600480360381019061028591906125d8565b611588565b6040516102979190612940565b60405180910390f35b6102ba60048036038101906102b5919061250f565b6116f1565b6040516102c7919061290a565b60405180910390f35b6102ea60048036038101906102e5919061250f565b611761565b6040516102fc96959493929190612962565b60405180910390f35b61030d611aec565b60405161031a9190612bea565b60405180910390f35b61033d6004803603810190610338919061253c565b611af6565b60405161034a9190612925565b60405180910390f35b61036d6004803603810190610368919061257c565b611d66565b005b6103896004803603810190610384919061250f565b611f71565b6040516103969190612940565b60405180910390f35b6103b960048036038101906103b491906125d8565b612065565b6040516103c69190612bea565b60405180910390f35b816103da8133612255565b610419576040517f08c379a0000000000000000000000000000000000000000000000000000000008152600401610410906129ca565b60405180910390fd5b6000600581111561042d5761042c612f55565b5b60008085815260200190815260200160002060030160009054906101000a900460ff16600581111561046257610461612f55565b5b146104a2576040517f08c379a000000000000000000000000000000000000000000000000000000000815260040161049990612a6a565b60405180910390fd5b6000151560008085815260200190815260200160002060040160008473ffffffffffffffffffffffffffffffffffffffff1673ffffffffffffffffffffffffffffffffffffffff16815260200190815260200160002060000160009054906101000a900460ff1615151461054b576040517f08c379a000000000000000000000000000000000000000000000000000000000815260040161054290612bca565b60405180910390fd5b6040518060600160405280600115158152602001600015158152602001600081525060008085815260200190815260200160002060040160008473ffffffffffffffffffffffffffffffffffffffff1673ffffffffffffffffffffffffffffffffffffffff16815260200190815260200160002060008201518160000160006101000a81548160ff02191690831515021790555060208201518160000160016101000a81548160ff02191690831515021790555060408201518160010155905050600080848152602001908152602001600020600501600081548092919061063290612edd565b91905055507ff45b8429c36d478f9a6d081c4811a819b98aa5b608588bed9d406405cf2824738383604051610668929190612c05565b60405180910390a1505050565b60008151116106b9576040517f08c379a00000000000000000000000000000000000000000000000000000000081526004016106b090612a4a565b60405180910390fd5b80600080600154815260200190815260200160002060000190805190602001906106e49291906122c3565b5033600080600154815260200190815260200160002060010160006101000a81548173ffffffffffffffffffffffffffffffffffffffff021916908373ffffffffffffffffffffffffffffffffffffffff1602179055507fa578a560f68c1301360cd84f59a6f2fcc8aeefbbc637f3fa97930e1c89cc554f60015460405161076c9190612bea565b60405180910390a160018060008282546107869190612d37565b9250508190555050565b600081600154116107d6576040517f08c379a00000000000000000000000000000000000000000000000000000000081526004016107cd90612aca565b60405180910390fd5b3373ffffffffffffffffffffffffffffffffffffffff1660008084815260200190815260200160002060010160009054906101000a900473ffffffffffffffffffffffffffffffffffffffff1673ffffffffffffffffffffffffffffffffffffffff16149050919050565b60008260015411610887576040517f08c379a000000000000000000000000000000000000000000000000000000000815260040161087e90612aca565b60405180910390fd5b60008084815260200190815260200160002060040160008373ffffffffffffffffffffffffffffffffffffffff1673ffffffffffffffffffffffffffffffffffffffff16815260200190815260200160002060000160019054906101000a900460ff16905092915050565b60008160015411610938576040517f08c379a000000000000000000000000000000000000000000000000000000000815260040161092f90612aca565b60405180910390fd5b600080838152602001908152602001600020600601805490509050919050565b6000816001541161099e576040517f08c379a000000000000000000000000000000000000000000000000000000000815260040161099590612aca565b60405180910390fd5b60008083815260200190815260200160002060040160003373ffffffffffffffffffffffffffffffffffffffff1673ffffffffffffffffffffffffffffffffffffffff16815260200190815260200160002060000160009054906101000a900460ff169050919050565b80610a138133612255565b610a52576040517f08c379a0000000000000000000000000000000000000000000000000000000008152600401610a49906129ca565b60405180910390fd5b600580811115610a6557610a64612f55565b5b60008084815260200190815260200160002060030160009054906101000a900460ff166005811115610a9a57610a99612f55565b5b1415610adb576040517f08c379a0000000000000000000000000000000000000000000000000000000008152600401610ad2906129ea565b60405180910390fd5b600080600084815260200190815260200160002060030160009054906101000a900460ff16905060006005811115610b1657610b15612f55565b5b60008085815260200190815260200160002060030160009054906101000a900460ff166005811115610b4b57610b4a612f55565b5b1415610c24576002600080858152602001908152602001600020600501541015610baa576040517f08c379a0000000000000000000000000000000000000000000000000000000008152600401610ba190612b4a565b60405180910390fd5b600160008085815260200190815260200160002060030160006101000a81548160ff02191690836005811115610be357610be2612f55565b5b02179055507fb751da72ce1967bb446b81cfd2c497796d3735d046c5448a569a02ee820f9bb683604051610c179190612bea565b60405180910390a1610fa4565b60016005811115610c3857610c37612f55565b5b60008085815260200190815260200160002060030160009054906101000a900460ff166005811115610c6d57610c6c612f55565b5b1415610d49576001600080858152602001908152602001600020600601805490501015610ccf576040517f08c379a0000000000000000000000000000000000000000000000000000000008152600401610cc690612baa565b60405180910390fd5b600260008085815260200190815260200160002060030160006101000a81548160ff02191690836005811115610d0857610d07612f55565b5b02179055507f949930d45cdfcfaf90b4f9f08cf19428d80125bf2a76743bc2f439a60417eadf83604051610d3c9190612bea565b60405180910390a1610fa3565b60026005811115610d5d57610d5c612f55565b5b60008085815260200190815260200160002060030160009054906101000a900460ff166005811115610d9257610d91612f55565b5b1415610e1257600360008085815260200190815260200160002060030160006101000a81548160ff02191690836005811115610dd157610dd0612f55565b5b02179055507fa9726274939b9e79c18898615eabbb9d02e7441f167819086bab785ae924de9383604051610e059190612bea565b60405180910390a1610fa2565b60036005811115610e2657610e25612f55565b5b60008085815260200190815260200160002060030160009054906101000a900460ff166005811115610e5b57610e5a612f55565b5b1415610edb57600460008085815260200190815260200160002060030160006101000a81548160ff02191690836005811115610e9a57610e99612f55565b5b02179055507f9956bd7b1ae344fbb54dbd02a85e2283bec6bf75f7fccbaa9c2392a715e71e4983604051610ece9190612bea565b60405180910390a1610fa1565b60046005811115610eef57610eee612f55565b5b60008085815260200190815260200160002060030160009054906101000a900460ff166005811115610f2457610f23612f55565b5b1415610fa057600560008085815260200190815260200160002060030160006101000a81548160ff02191690836005811115610f6357610f62612f55565b5b02179055507fd50c1fd4ce30d65682cf92d04facc6fcd5e23d20a9af6d037faf9c7ac945ade683604051610f979190612bea565b60405180910390a15b5b5b5b5b7fb067099e10826978a3867510ad1e0dcf4ca5cef8e422fd8df2fc3d679167fe8d838260008087815260200190815260200160002060030160009054906101000a900460ff16604051610ff993929190612c65565b60405180910390a1505050565b8160008082815260200190815260200160002060040160003373ffffffffffffffffffffffffffffffffffffffff1673ffffffffffffffffffffffffffffffffffffffff16815260200190815260200160002060000160009054906101000a900460ff166110a9576040517f08c379a00000000000000000000000000000000000000000000000000000000081526004016110a090612b2a565b60405180910390fd5b600360058111156110bd576110bc612f55565b5b60008085815260200190815260200160002060030160009054906101000a900460ff1660058111156110f2576110f1612f55565b5b14611132576040517f08c379a000000000000000000000000000000000000000000000000000000000815260040161112990612a0a565b60405180910390fd5b6000151560008085815260200190815260200160002060040160003373ffffffffffffffffffffffffffffffffffffffff1673ffffffffffffffffffffffffffffffffffffffff16815260200190815260200160002060000160019054906101000a900460ff161515146111db576040517f08c379a00000000000000000000000000000000000000000000000000000000081526004016111d290612aaa565b60405180910390fd5b816000808581526020019081526020016000206006018054905011611235576040517f08c379a000000000000000000000000000000000000000000000000000000000815260040161122c90612aea565b60405180910390fd5b600080848152602001908152602001600020600601828154811061125c5761125b612fb3565b5b9060005260206000209060020201600101600081548092919061127e90612edd565b9190505550600160008085815260200190815260200160002060040160003373ffffffffffffffffffffffffffffffffffffffff1673ffffffffffffffffffffffffffffffffffffffff16815260200190815260200160002060000160016101000a81548160ff0219169083151502179055508160008085815260200190815260200160002060040160003373ffffffffffffffffffffffffffffffffffffffff1673ffffffffffffffffffffffffffffffffffffffff168152602001908152602001600020600101819055506001600080858152602001908152602001600020600601838154811061137457611373612fb3565b5b906000526020600020906002020160010160008282546113949190612d37565b9250508190555060008084815260200190815260200160002060060182815481106113c2576113c1612fb3565b5b90600052602060002090600202016001015460008085815260200190815260200160002060070154101561145d578160008085815260200190815260200160002060020181905550600080848152602001908152602001600020600601828154811061143157611430612fb3565b5b906000526020600020906002020160010154600080858152602001908152602001600020600701819055505b7f1abe610cf2bf87e57dcc1181fcf5ac0934e843d8344ab9eed6e86c799f62585e83338460405161149093929190612c2e565b60405180910390a1505050565b606081600154116114e3576040517f08c379a00000000000000000000000000000000000000000000000000000000081526004016114da90612aca565b60405180910390fd5b600080838152602001908152602001600020600001805461150390612e7a565b80601f016020809104026020016040519081016040528092919081815260200182805461152f90612e7a565b801561157c5780601f106115515761010080835404028352916020019161157c565b820191906000526020600020905b81548152906001019060200180831161155f57829003601f168201915b50505050509050919050565b606082600154116115ce576040517f08c379a00000000000000000000000000000000000000000000000000000000081526004016115c590612aca565b60405180910390fd5b816000808581526020019081526020016000206006018054905011611628576040517f08c379a000000000000000000000000000000000000000000000000000000000815260040161161f90612aea565b60405180910390fd5b600080848152602001908152602001600020600601828154811061164f5761164e612fb3565b5b9060005260206000209060020201600001805461166b90612e7a565b80601f016020809104026020016040519081016040528092919081815260200182805461169790612e7a565b80156116e45780601f106116b9576101008083540402835291602001916116e4565b820191906000526020600020905b8154815290600101906020018083116116c757829003601f168201915b5050505050905092915050565b60008160015411611737576040517f08c379a000000000000000000000000000000000000000000000000000000000815260040161172e90612aca565b60405180910390fd5b60008083815260200190815260200160002060030160009054906101000a900460ff169050919050565b6060600080600080600086600154116117af576040517f08c379a00000000000000000000000000000000000000000000000000000000081526004016117a690612aca565b60405180910390fd5b600080600089815260200190815260200160002060000180546117d190612e7a565b80601f01602080910402602001604051908101604052809291908181526020018280546117fd90612e7a565b801561184a5780601f1061181f5761010080835404028352916020019161184a565b820191906000526020600020905b81548152906001019060200180831161182d57829003601f168201915b5050505050905060003073ffffffffffffffffffffffffffffffffffffffff1663c5dc43a78a6040518263ffffffff1660e01b815260040161188c9190612bea565b60206040518083038186803b1580156118a457600080fd5b505afa1580156118b8573d6000803e3d6000fd5b505050506040513d601f19601f820116820180604052508101906118dc919061246c565b60058111156118ee576118ed612f55565b5b905060008060008b815260200190815260200160002060040160003373ffffffffffffffffffffffffffffffffffffffff1673ffffffffffffffffffffffffffffffffffffffff16815260200190815260200160002060000160009054906101000a900460ff16905060007fffffffffffffffffffffffffffffffffffffffffffffffffffffffffffffffff90506000828015611a1257503073ffffffffffffffffffffffffffffffffffffffff1663438596328d336040518363ffffffff1660e01b81526004016119c1929190612c05565b60206040518083038186803b1580156119d957600080fd5b505afa1580156119ed573d6000803e3d6000fd5b505050506040513d601f19601f82011682018060405250810190611a11919061243f565b5b15611abd573073ffffffffffffffffffffffffffffffffffffffff1663e8882bda8d336040518363ffffffff1660e01b8152600401611a52929190612c05565b60206040518083038186803b158015611a6a57600080fd5b505afa158015611a7e573d6000803e3d6000fd5b505050506040513d601f19601f82011682018060405250810190611aa29190612499565b91506000808d81526020019081526020016000206002015490505b6000611ac98d33612255565b90508585858584869b509b509b509b509b509b5050505050505091939550919395565b6000600154905090565b60008260015411611b3c576040517f08c379a0000000000000000000000000000000000000000000000000000000008152600401611b3390612aca565b60405180910390fd5b600580811115611b4f57611b4e612f55565b5b60008085815260200190815260200160002060030160009054906101000a900460ff166005811115611b8457611b83612f55565b5b1480611bd6575060036005811115611b9f57611b9e612f55565b5b60008085815260200190815260200160002060030160009054906101000a900460ff166005811115611bd457611bd3612f55565b5b145b80611c27575060046005811115611bf057611bef612f55565b5b60008085815260200190815260200160002060030160009054906101000a900460ff166005811115611c2557611c24612f55565b5b145b611c66576040517f08c379a0000000000000000000000000000000000000000000000000000000008152600401611c5d90612b6a565b60405180910390fd5b60008084815260200190815260200160002060040160008373ffffffffffffffffffffffffffffffffffffffff1673ffffffffffffffffffffffffffffffffffffffff16815260200190815260200160002060000160019054906101000a900460ff16611d08576040517f08c379a0000000000000000000000000000000000000000000000000000000008152600401611cff90612a8a565b60405180910390fd5b60008084815260200190815260200160002060040160008373ffffffffffffffffffffffffffffffffffffffff1673ffffffffffffffffffffffffffffffffffffffff16815260200190815260200160002060010154905092915050565b8160008082815260200190815260200160002060040160003373ffffffffffffffffffffffffffffffffffffffff1673ffffffffffffffffffffffffffffffffffffffff16815260200190815260200160002060000160009054906101000a900460ff16611e09576040517f08c379a0000000000000000000000000000000000000000000000000000000008152600401611e0090612b2a565b60405180910390fd5b60016005811115611e1d57611e1c612f55565b5b60008085815260200190815260200160002060030160009054906101000a900460ff166005811115611e5257611e51612f55565b5b14611e92576040517f08c379a0000000000000000000000000000000000000000000000000000000008152600401611e8990612b8a565b60405180910390fd5b6000808481526020019081526020016000206006016040518060400160405280848152602001600081525090806001815401808255809150506001900390600052602060002090600202016000909190919091506000820151816000019080519060200190611f029291906122c3565b506020820151816001015550507fca195036d7c4d40b171ad51e9c891c830a0ad9a5e114b5b075cdf791317e300c83600160008087815260200190815260200160002060060180549050611f569190612d8d565b604051611f64929190612c9c565b60405180910390a1505050565b60608160015411611fb7576040517f08c379a0000000000000000000000000000000000000000000000000000000008152600401611fae90612aca565b60405180910390fd5b600580811115611fca57611fc9612f55565b5b60008084815260200190815260200160002060030160009054906101000a900460ff166005811115611fff57611ffe612f55565b5b1461203f576040517f08c379a000000000000000000000000000000000000000000000000000000000815260040161203690612a2a565b60405180910390fd5b61205e8260008085815260200190815260200160002060020154611588565b9050919050565b6000823373ffffffffffffffffffffffffffffffffffffffff1660008083815260200190815260200160002060010160009054906101000a900473ffffffffffffffffffffffffffffffffffffffff1673ffffffffffffffffffffffffffffffffffffffff161480612136575060008082815260200190815260200160002060040160003373ffffffffffffffffffffffffffffffffffffffff1673ffffffffffffffffffffffffffffffffffffffff16815260200190815260200160002060000160009054906101000a900460ff165b612175576040517f08c379a000000000000000000000000000000000000000000000000000000000815260040161216c90612b0a565b60405180910390fd5b83600154116121b9576040517f08c379a00000000000000000000000000000000000000000000000000000000081526004016121b090612aca565b60405180910390fd5b826000808681526020019081526020016000206006018054905011612213576040517f08c379a000000000000000000000000000000000000000000000000000000000815260040161220a90612aea565b60405180910390fd5b600080858152602001908152602001600020600601838154811061223a57612239612fb3565b5b90600052602060002090600202016001015491505092915050565b60008173ffffffffffffffffffffffffffffffffffffffff1660008085815260200190815260200160002060010160009054906101000a900473ffffffffffffffffffffffffffffffffffffffff1673ffffffffffffffffffffffffffffffffffffffff1614905092915050565b8280546122cf90612e7a565b90600052602060002090601f0160209004810192826122f15760008555612338565b82601f1061230a57805160ff1916838001178555612338565b82800160010185558215612338579182015b8281111561233757825182559160200191906001019061231c565b5b5090506123459190612349565b5090565b5b8082111561236257600081600090555060010161234a565b5090565b600061237961237484612cea565b612cc5565b90508281526020810184848401111561239557612394613016565b5b6123a0848285612e38565b509392505050565b6000813590506123b781613303565b92915050565b6000815190506123cc8161331a565b92915050565b6000815190506123e181613331565b92915050565b6000815190506123f681613341565b92915050565b600082601f83011261241157612410613011565b5b8135612421848260208601612366565b91505092915050565b60008135905061243981613358565b92915050565b60006020828403121561245557612454613020565b5b6000612463848285016123bd565b91505092915050565b60006020828403121561248257612481613020565b5b6000612490848285016123d2565b91505092915050565b6000602082840312156124af576124ae613020565b5b60006124bd848285016123e7565b91505092915050565b6000602082840312156124dc576124db613020565b5b600082013567ffffffffffffffff8111156124fa576124f961301b565b5b612506848285016123fc565b91505092915050565b60006020828403121561252557612524613020565b5b60006125338482850161242a565b91505092915050565b6000806040838503121561255357612552613020565b5b60006125618582860161242a565b9250506020612572858286016123a8565b9150509250929050565b6000806040838503121561259357612592613020565b5b60006125a18582860161242a565b925050602083013567ffffffffffffffff8111156125c2576125c161301b565b5b6125ce858286016123fc565b9150509250929050565b600080604083850312156125ef576125ee613020565b5b60006125fd8582860161242a565b925050602061260e8582860161242a565b9150509250929050565b61262181612dc1565b82525050565b61263081612dd3565b82525050565b61263f81612e26565b82525050565b61264e81612df2565b82525050565b600061265f82612d1b565b6126698185612d26565b9350612679818560208601612e47565b61268281613025565b840191505092915050565b600061269a600183612d26565b91506126a582613036565b602082019050919050565b60006126bd600183612d26565b91506126c88261305f565b602082019050919050565b60006126e0600283612d26565b91506126eb82613088565b602082019050919050565b6000612703600283612d26565b915061270e826130b1565b602082019050919050565b6000612726600183612d26565b9150612731826130da565b602082019050919050565b6000612749600183612d26565b915061275482613103565b602082019050919050565b600061276c600283612d26565b91506127778261312c565b602082019050919050565b600061278f600283612d26565b915061279a82613155565b602082019050919050565b60006127b2600283612d26565b91506127bd8261317e565b602082019050919050565b60006127d5600283612d26565b91506127e0826131a7565b602082019050919050565b60006127f8600183612d26565b9150612803826131d0565b602082019050919050565b600061281b600183612d26565b9150612826826131f9565b602082019050919050565b600061283e600183612d26565b915061284982613222565b602082019050919050565b6000612861601483612d26565b915061286c8261324b565b602082019050919050565b6000612884600183612d26565b915061288f82613274565b602082019050919050565b60006128a7600183612d26565b91506128b28261329d565b602082019050919050565b60006128ca600183612d26565b91506128d5826132c6565b602082019050919050565b6128e981612e1c565b82525050565b60006020820190506129046000830184612627565b92915050565b600060208201905061291f6000830184612636565b92915050565b600060208201905061293a6000830184612645565b92915050565b6000602082019050818103600083015261295a8184612654565b905092915050565b600060c082019050818103600083015261297c8189612654565b905061298b60208301886128e0565b6129986040830187612627565b6129a56060830186612645565b6129b26080830185612627565b6129bf60a08301846128e0565b979650505050505050565b600060208201905081810360008301526129e38161268d565b9050919050565b60006020820190508181036000830152612a03816126b0565b9050919050565b60006020820190508181036000830152612a23816126d3565b9050919050565b60006020820190508181036000830152612a43816126f6565b9050919050565b60006020820190508181036000830152612a6381612719565b9050919050565b60006020820190508181036000830152612a838161273c565b9050919050565b60006020820190508181036000830152612aa38161275f565b9050919050565b60006020820190508181036000830152612ac381612782565b9050919050565b60006020820190508181036000830152612ae3816127a5565b9050919050565b60006020820190508181036000830152612b03816127c8565b9050919050565b60006020820190508181036000830152612b23816127eb565b9050919050565b60006020820190508181036000830152612b438161280e565b9050919050565b60006020820190508181036000830152612b6381612831565b9050919050565b60006020820190508181036000830152612b8381612854565b9050919050565b60006020820190508181036000830152612ba381612877565b9050919050565b60006020820190508181036000830152612bc38161289a565b9050919050565b60006020820190508181036000830152612be3816128bd565b9050919050565b6000602082019050612bff60008301846128e0565b92915050565b6000604082019050612c1a60008301856128e0565b612c276020830184612618565b9392505050565b6000606082019050612c4360008301866128e0565b612c506020830185612618565b612c5d60408301846128e0565b949350505050565b6000606082019050612c7a60008301866128e0565b612c876020830185612636565b612c946040830184612636565b949350505050565b6000604082019050612cb160008301856128e0565b612cbe60208301846128e0565b9392505050565b6000612ccf612ce0565b9050612cdb8282612eac565b919050565b6000604051905090565b600067ffffffffffffffff821115612d0557612d04612fe2565b5b612d0e82613025565b9050602081019050919050565b600081519050919050565b600082825260208201905092915050565b6000612d4282612e1c565b9150612d4d83612e1c565b9250827fffffffffffffffffffffffffffffffffffffffffffffffffffffffffffffffff03821115612d8257612d81612f26565b5b828201905092915050565b6000612d9882612e1c565b9150612da383612e1c565b925082821015612db657612db5612f26565b5b828203905092915050565b6000612dcc82612dfc565b9050919050565b60008115159050919050565b6000819050612ded826132ef565b919050565b6000819050919050565b600073ffffffffffffffffffffffffffffffffffffffff82169050919050565b6000819050919050565b6000612e3182612ddf565b9050919050565b82818337600083830152505050565b60005b83811015612e65578082015181840152602081019050612e4a565b83811115612e74576000848401525b50505050565b60006002820490506001821680612e9257607f821691505b60208210811415612ea657612ea5612f84565b5b50919050565b612eb582613025565b810181811067ffffffffffffffff82111715612ed457612ed3612fe2565b5b80604052505050565b6000612ee882612e1c565b91507fffffffffffffffffffffffffffffffffffffffffffffffffffffffffffffffff821415612f1b57612f1a612f26565b5b600182019050919050565b7f4e487b7100000000000000000000000000000000000000000000000000000000600052601160045260246000fd5b7f4e487b7100000000000000000000000000000000000000000000000000000000600052602160045260246000fd5b7f4e487b7100000000000000000000000000000000000000000000000000000000600052602260045260246000fd5b7f4e487b7100000000000000000000000000000000000000000000000000000000600052603260045260246000fd5b7f4e487b7100000000000000000000000000000000000000000000000000000000600052604160045260246000fd5b600080fd5b600080fd5b600080fd5b600080fd5b6000601f19601f8301169050919050565b7f3000000000000000000000000000000000000000000000000000000000000000600082015250565b7f3400000000000000000000000000000000000000000000000000000000000000600082015250565b7f3130000000000000000000000000000000000000000000000000000000000000600082015250565b7f3135000000000000000000000000000000000000000000000000000000000000600082015250565b7f3300000000000000000000000000000000000000000000000000000000000000600082015250565b7f3700000000000000000000000000000000000000000000000000000000000000600082015250565b7f3134000000000000000000000000000000000000000000000000000000000000600082015250565b7f3131000000000000000000000000000000000000000000000000000000000000600082015250565b7f3133000000000000000000000000000000000000000000000000000000000000600082015250565b7f3132000000000000000000000000000000000000000000000000000000000000600082015250565b7f3200000000000000000000000000000000000000000000000000000000000000600082015250565b7f3100000000000000000000000000000000000000000000000000000000000000600082015250565b7f3500000000000000000000000000000000000000000000000000000000000000600082015250565b7f566f7465206e6f74207374617274656420796574000000000000000000000000600082015250565b7f3900000000000000000000000000000000000000000000000000000000000000600082015250565b7f3600000000000000000000000000000000000000000000000000000000000000600082015250565b7f3800000000000000000000000000000000000000000000000000000000000000600082015250565b60068110613300576132ff612f55565b5b50565b61330c81612dc1565b811461331757600080fd5b50565b61332381612dd3565b811461332e57600080fd5b50565b6006811061333e57600080fd5b50565b61334a81612df2565b811461335557600080fd5b50565b61336181612e1c565b811461336c57600080fd5b5056fea2646970667358221220beb6f58a2695aecf6fd2fc3ce2d69e1f335d37775c1b17f5681a78f669bdbda164736f6c63430008070033",
  "immutableReferences": {},
  "source": "// SPDX-License-Identifier: MIT\r\n\r\npragma solidity 0.8.7;\r\n \r\ncontract Voting {\r\n    // Structures\r\n    struct Voter {\r\n        bool isRegistered;\r\n        bool hasVoted;\r\n        uint votedProposalId;\r\n    }\r\n      \r\n    struct Proposal {\r\n        string description;\r\n        uint voteCount;\r\n    }\r\n    \r\n    // vote mapping\r\n    struct Vote{\r\n        // Subject of the vote\r\n        string tips;\r\n        // Owner address\r\n        address owner;\r\n        // Winner ID\r\n        uint winningProposalId;\r\n        // Status ID\r\n        WorkflowStatus statusId;\r\n        //Voter mapping\r\n        mapping (address => Voter) voters;\r\n        uint votersCount;\r\n        // Proposal listing\r\n        Proposal[] proposals;\r\n        uint maxVoteCount;\r\n    }\r\n\r\n    // Enumeration\r\n    enum WorkflowStatus {\r\n        RegisteringVoters,\r\n        ProposalsRegistrationStarted,\r\n        ProposalsRegistrationEnded,\r\n        VotingSessionStarted,\r\n        VotingSessionEnded,\r\n        VotesTallied\r\n    } \r\n    \r\n    mapping (uint => Vote) votes;// Maps use less gas than arrays\r\n    uint private votesCount;// So a counter is associated to retrive votes\r\n    \r\n    // Events\r\n    event VoteCreated(uint voteIndex);\r\n    event VoterRegistered(uint voteIndex, address voterAddress);\r\n    event ProposalsRegistrationStarted(uint voteIndex);\r\n    event ProposalsRegistrationEnded(uint voteIndex);\r\n    event ProposalRegistered(uint voteIndex, uint proposalId);\r\n    event VotingSessionStarted(uint voteIndex);\r\n    event VotingSessionEnded(uint voteIndex);\r\n    event Voted (uint voteIndex, address voter, uint proposalId);\r\n    event VotesTallied(uint voteIndex);\r\n    event WorkflowStatusChange(uint voteIndex, WorkflowStatus previousStatus, WorkflowStatus newStatus);\r\n\r\n    modifier onlyOwner(uint index){\r\n        require(_isOwner(index, msg.sender), '0');//Ownable: caller can be only the owner of the vote\r\n        _;\r\n    }\r\n\r\n     modifier onlyRegistered(uint index){\r\n        require(votes[index].voters[msg.sender].isRegistered, '1');//Listed: caller has not been registered by the owner\r\n        _;\r\n    }\r\n\r\n    // For internal calls, the sender address should be retrived from the top call\r\n    function _isOwner(uint index, address _address) private view returns (bool) {\r\n        return votes[index].owner==_address;\r\n    }\r\n\r\n    modifier onlyRegisteredOrOwner(uint index){\r\n        require(votes[index].owner==msg.sender || votes[index].voters[msg.sender].isRegistered, '2');//Ownable or listed only\r\n        _;\r\n    }\r\n\r\n    // Setter and interaction functions //\r\n    // Add a new vote to the list\r\n    function newVote(string memory tips) external {// Everyone can add a new vote\r\n        require(bytes(tips).length>0, '3');//Tips should not be empty //didn't accept empty tips\r\n        votes[votesCount].tips = tips;\r\n        votes[votesCount].owner = msg.sender;\r\n        emit VoteCreated(votesCount);\r\n        votesCount+=1;\r\n    }\r\n\r\n    // I decided to use only one function insteed of specific status setter like \"setProposalsRegistrationStartedStatus\"\r\n    function setNextWorkflowStatus(uint index) external onlyOwner(index){\r\n        \r\n        require(votes[index].statusId != WorkflowStatus.VotesTallied, '4');//The vote is already done\r\n        // keep the old status for the \"WorkflowStatusChange\" event.\r\n        WorkflowStatus oldStatus = votes[index].statusId;\r\n        \r\n        // State machine for the status workflow\r\n        // 0_ Voters registration by the owner.\r\n        // 0 => 1_ I defined a minimum of two voters, otherwise the vote would not be necessary.\r\n        // Proposals registration for they registered address.\r\n        if (votes[index].statusId==WorkflowStatus.RegisteringVoters){\r\n            require(votes[index].votersCount>=2, '5');//We should have at least two voters to continue the workflow\r\n            votes[index].statusId = WorkflowStatus.ProposalsRegistrationStarted;\r\n            emit ProposalsRegistrationStarted(index);\r\n        }\r\n        // 1 => 2_ I defined a minimum of one proposal because it's the minimum to have an outcome.\r\n        // Close the registration period.\r\n        else if (votes[index].statusId==WorkflowStatus.ProposalsRegistrationStarted){\r\n            require(votes[index].proposals.length>=1, '6');//We should have at least one Proposal to continue the workflow\r\n            votes[index].statusId = WorkflowStatus.ProposalsRegistrationEnded;\r\n            emit ProposalsRegistrationEnded(index);\r\n        }\r\n        // 2 => 3_ I did not launch the voting session right afterwards to let the voters see the proposals\r\n        // Open the votes[index].\r\n        else if (votes[index].statusId==WorkflowStatus.ProposalsRegistrationEnded){\r\n            votes[index].statusId = WorkflowStatus.VotingSessionStarted;\r\n            emit VotingSessionStarted(index);\r\n        }\r\n        // 3 => 4_ Close the vote\r\n        else if (votes[index].statusId==WorkflowStatus.VotingSessionStarted){\r\n            votes[index].statusId = WorkflowStatus.VotingSessionEnded;\r\n            emit VotingSessionEnded(index);\r\n        }\r\n            // 4 => 5_ I did not launch the votes counting right after the VotingSessionEnded because there is two separated points in the exercice.\r\n            // But all results are publique so the suspense would not be there anyway.\r\n        else if (votes[index].statusId==WorkflowStatus.VotingSessionEnded){\r\n\r\n            votes[index].statusId = WorkflowStatus.VotesTallied;\r\n            emit VotesTallied(index);\r\n        }\r\n        emit WorkflowStatusChange(index, oldStatus, votes[index].statusId);\r\n    }\r\n    \r\n    // Let a vote owner to register any etherum address to take part in the votes.\r\n    function authorize( uint index, address _address) external onlyOwner(index){\r\n        \r\n        require(votes[index].statusId==WorkflowStatus.RegisteringVoters, '7');//Unable to register anyone after the RegisteringVoters workflow status\r\n        require(votes[index].voters[_address].isRegistered==false, '8');//Address already registered\r\n        votes[index].voters[_address] = Voter({isRegistered: true, hasVoted: false, votedProposalId: 0});\r\n        // The voter counter exists to ensure that there is a minimum of two. \r\n        votes[index].votersCount++;\r\n        emit VoterRegistered(index, _address);\r\n    }\r\n    \r\n    // Registered address can add any proposition description at multiple times\r\n    function newProposal(uint index, string memory description) external onlyRegistered(index){\r\n        require(votes[index].statusId==WorkflowStatus.ProposalsRegistrationStarted, '9');//Unable to register any proposals. Proposals Registration not started or already ended\r\n        votes[index].proposals.push(Proposal({description: description, voteCount:0}));\r\n        emit ProposalRegistered(index, votes[index].proposals.length-1);\r\n    }\r\n    \r\n    // Registered address can vote once for a registered proposals\r\n    function doVote(uint index, uint votedProposalId) external onlyRegistered(index){\r\n        \r\n        require(votes[index].statusId==WorkflowStatus.VotingSessionStarted, '10');//Unable to vote while the current workflow status is not VotingSessionStarted\r\n        require(votes[index].voters[msg.sender].hasVoted==false, '11');//You can t vote twice\r\n        require(votes[index].proposals.length>votedProposalId, '12');//votedProposalId doesn t exist\r\n        votes[index].proposals[votedProposalId].voteCount++;\r\n        votes[index].voters[msg.sender].hasVoted = true;\r\n        votes[index].voters[msg.sender].votedProposalId = votedProposalId;\r\n        votes[index].proposals[votedProposalId].voteCount += 1;\r\n        // Check the winning proposal\r\n        if (votes[index].maxVoteCount<votes[index].proposals[votedProposalId].voteCount){\r\n            votes[index].winningProposalId = votedProposalId;\r\n            votes[index].maxVoteCount = votes[index].proposals[votedProposalId].voteCount;\r\n        }\r\n        emit Voted(index, msg.sender, votedProposalId);\r\n    }\r\n    \r\n    // Some usefull getter\r\n\r\n    function getVoteCount() external view returns (uint){\r\n        return votesCount;\r\n    }\r\n\r\n    // get the vote purpos at the given index\r\n    function getVoteTips(uint index) external view returns(string memory){\r\n        require(votesCount>index, \"13\");//Given vote index doesn't exist\r\n        return votes[index].tips;\r\n    }\r\n\r\n    // Ask if the sender is the vote owner\r\n    function isOwner(uint index) external view returns(bool){\r\n        require(votesCount>index, \"13\");\r\n        return votes[index].owner==msg.sender;\r\n    }\r\n\r\n    // Ask if the sender has been registered in the vote by the owner\r\n    function isRegistered(uint index) external view returns(bool){\r\n        require(votesCount>index, \"13\");\r\n        return votes[index].voters[msg.sender].isRegistered;\r\n    }\r\n\r\n    // Get the current status of the vote as an ID (not very human readeable)\r\n    function getWorkflowStatus(uint index) external view returns (WorkflowStatus) {\r\n        require(votesCount>index, \"13\");\r\n        return votes[index].statusId;\r\n    }\r\n\r\n    function getProposalCount(uint index) external view returns(uint){\r\n        require(votesCount>index, \"13\");\r\n        return votes[index].proposals.length;\r\n    }\r\n\r\n    function getProposalDescriptionById(uint index, uint ProposalId) public view returns (string memory){\r\n        require(votesCount>index, \"13\");\r\n        require(votes[index].proposals.length>ProposalId, '12');\r\n        return votes[index].proposals[ProposalId].description;\r\n    }\r\n    \r\n    // As explaned in the exercise, everyone can check the final details of the winning proposal so i did'n put the onlyRegistered modifier.\r\n    function getWinningProposalDescription(uint index) external view returns (string memory){\r\n        require(votesCount>index, \"13\");\r\n        require(votes[index].statusId==WorkflowStatus.VotesTallied, '15');//Vote not tallied yet\r\n        return getProposalDescriptionById(index, votes[index].winningProposalId);\r\n    }\r\n    \r\n    function getProposalVoteCountById(uint index, uint ProposalId) external view onlyRegisteredOrOwner(index) returns (uint){\r\n        require(votesCount>index, \"13\");\r\n        require(votes[index].proposals.length>ProposalId, '12');\r\n        return votes[index].proposals[ProposalId].voteCount;\r\n    }\r\n    \r\n    function getVotedProposalIdByAddress(uint index, address _address) external view returns (int){\r\n        require(votesCount>index, \"13\");\r\n        require(votes[index].statusId==WorkflowStatus.VotesTallied || votes[index].statusId==WorkflowStatus.VotingSessionStarted || votes[index].statusId==WorkflowStatus.VotingSessionEnded, 'Vote not started yet');\r\n        require(votes[index].voters[_address].hasVoted, '14');//This address has not voted\r\n        return int(votes[index].voters[_address].votedProposalId);\r\n    }\r\n\r\n    function hasVoted(uint index, address _address) external view  returns (bool){\r\n        require(votesCount>index, \"13\");\r\n        return votes[index].voters[_address].hasVoted;\r\n    }\r\n\r\n    // get front vote informations\r\n    function getFullPersonalVoteInfo(uint index) external view returns(string memory, uint, bool, int, bool, uint){\r\n        require(votesCount>index, \"13\");\r\n        string memory tips = votes[index].tips;\r\n        uint state = uint(this.getWorkflowStatus(index));\r\n        bool registered = votes[index].voters[msg.sender].isRegistered;\r\n        int votedIndex = -1;\r\n        uint winningProposalId = 0;\r\n        if (registered && this.hasVoted(index, msg.sender)){\r\n            votedIndex = this.getVotedProposalIdByAddress(index, msg.sender);\r\n            winningProposalId = votes[index].winningProposalId;\r\n        }\r\n        \r\n        bool owner = _isOwner(index, msg.sender);\r\n        return (tips, state, registered, votedIndex, owner, winningProposalId);\r\n    }\r\n    \r\n}\r\n",
  "sourcePath": "G:\\Developement\\BC\\Alyra\\Alyra\\Defis\\2-Suite-SystemeDeVote\\contracts\\Voting.sol",
  "compiler": {
    "name": "solc",
    "version": "0.8.7+commit.e28d00a7.Emscripten.clang"
  },
  "schemaVersion": "3.4.3",
  "updatedAt": "2021-11-20T23:32:35.341Z",
  "networkType": "ethereum",
  "devdoc": {
    "kind": "dev",
    "methods": {},
    "version": 1
  },
  "userdoc": {
    "kind": "user",
    "methods": {},
    "version": 1
  }
}