{
  "contractName": "SimpleStorage",
  "abi": [
    {
      "inputs": [
        {
          "internalType": "uint256",
          "name": "x",
          "type": "uint256"
        }
      ],
      "name": "set",
      "outputs": [],
      "stateMutability": "nonpayable",
      "type": "function"
    },
    {
      "inputs": [],
      "name": "get",
      "outputs": [
        {
          "internalType": "uint256",
          "name": "",
          "type": "uint256"
        }
      ],
      "stateMutability": "view",
      "type": "function"
    }
  ],
  "bytecode": "0x608060405234801561001057600080fd5b5060e48061001f6000396000f3fe6080604052348015600f57600080fd5b5060043610604f576000357c01000000000000000000000000000000000000000000000000000000009004806360fe47b11460545780636d4ce63c14607f575b600080fd5b607d60048036036020811015606857600080fd5b8101908080359060200190929190505050609b565b005b608560a5565b6040518082815260200191505060405180910390f35b8060008190555050565b6000805490509056fea26469706673582212206922f53a6fd3c2dfcf368aab7fa69b8c058589bf709a57444620ecd9b5e51fe964736f6c634300060b0033",
  "immutableReferences": {},
  "source": "pragma solidity 0.6.11;\r\n\r\ncontract SimpleStorage {\r\n   uint data;\r\n\r\n   function set(uint x) public {\r\n       data = x;\r\n   }\r\n\r\n   function get() public view returns (uint) {\r\n       return data;\r\n   }\r\n}",
  "sourcePath": "E:\\Developement\\BC\\Alyra\\Alyra\\Exercices\\S5-WEB3\\MetaMask\\simple-storage-truffle\\contracts\\SimpleStorage.sol",
  "compiler": {
    "name": "solc",
    "version": "0.6.11+commit.5ef660b1.Linux.g++"
  },
  "schemaVersion": "3.4.3",
  "updatedAt": "2021-09-19T14:56:54.958Z",
  "devdoc": {
    "kind": "dev",
    "methods": {},
    "version": 1
  },
  "userdoc": {
    "kind": "user",
    "methods": {},
    "version": 1
  }
}